:020000020000FC
:040000000C9400015B
:04002C000C9400032D
:100200000E9469010E9490010E94C6020E944F0252
:100210000E94BD0208E00EBF4FEF0DBF00E004B921
:100220000AB9389AF8940E941E010E9466020E9440
:100230004F020E94BD020E947D02FFCF0E942C014E
:1002400070E070FD0C942B01509184000E944D01D0
:100250000E949102F6CF0895F8940091001418ECD2
:10026000019F00E0302E04E6202E0E94620100E093
:1002700000938900042D0093880000E00093800023
:100280000EE00093810002E000936F0000910214E1
:1002900018B1012B08B9789408950E94660268E0AD
:1002A00057FF01C007C030E30E9431026A9549F050
:1002B000550FF6CF31E30E9431026A9511F0550FC8
:1002C000EFCF08954424439402181308E0F74A94AA
:1002D000089508EF0093B80004EA0093BC00009171
:1002E000BC0007FFFCCF0091B900087F083011F473
:1002F0000C947C010E94B9020EE40093BB0004E858
:100300000093BC000091BC0007FFFCCF0091B90036
:10031000087F003211F00C948F010E94B9020895F9
:100320000E94910200E310E30093BB0004E80093F5
:10033000BC000E9425020E94A5020E9499020E9410
:10034000A5020E9489020E94A5020E94990208E269
:1003500018E20093BB0004E80093BC000E94250251
:100360000E94A5020E94890208E218E20093BB00E5
:1003700004E80093BC000E9425020E94A50208E840
:1003800018E80093BB0004E80093BC000E9425021B
:100390000E94A50208E018E00093BB0004E8009367
:1003A000BC000E9425020E94A50208E818E80093FC
:1003B000BB0004E80093BC000E9425020E94A50235
:1003C00008E018E00093BB0004E80093BC000E9422
:1003D00025020E94A50208E118E10093BB0004E891
:1003E0000093BC000E9425020E94A50208E018E0CC
:1003F0000093BB0004E80093BC000E9425020E9409
:10040000A50208EF18EF0093BB0004E80093BC00BE
:100410000E9425020E94A50208E018E00093BB009C
:1004200004E80093BC000E9425020E94A5020E94DD
:10043000990208E618E60093BB0004E80093BC00AC
:100440000E9425020E94A50208950091BC0007FFAA
:10045000FCCF0091B900087F083209F408950C948C
:100460008102032F007F0960102F0093BB0004E876
:100470000093BC000E9425020E94A502032F000FDA
:10048000000F000F000F0960102F0093BB0004E85D
:100490000093BC000E9425020E94A502089508EC6A
:1004A00018EC0093BB0004E80093BC000E942502F6
:1004B0000E94A50208E018E00093BB0004E8009346
:1004C000BC000E9425020E94A502089508E018E0E1
:1004D0000093BB0004E80093BC000E9425020E9428
:1004E000A50208E118E10093BB0004E80093BC00FA
:1004F0000E9425020E94A502089504E90093BC0011
:1005000008950E94B9022F932AE32A95F1F72F91BB
:1005100008952F9324E60E9483022A95E1F72F91F4
:1005200008952F9322E30E9489022A95E1F72F91E3
:10053000089525E00E9489022A95E1F708952CE3A9
:100540000E9491022A95E1F708950E9489021460A1
:100550001093BB0004E80093BC000E9425021B7F9F
:100560001093BB0004E80093BC000E94250208958C
:10057000FFCF04E90093BC00FBCFF5E0EEE94DE0CE
:1005800035910E9431024A95D9F70895F5E0ECEAD9
:100590004FE035910E9431024A95D9F708954249BA
:1005A000454E56454E49444F532121302A2A2A436D
:0C05B0004F434B2D5441494C2A2A2A305D
:1006000071E040984198429800E00093810018956D
:00000001FF
