:020000020000FC
:040000000C9400015B
:04002C000C9400032D
:100200000E9462010E9489010E94BF020E9448026E
:100210000E94B60208E00EBF4FEF0DBF00E004B928
:100220000AB9389AF8944D9B0C941601409A00E054
:10023000009389000CE80093880000E000938000A0
:100240000EE00093810002E000936F0051E070E047
:10025000789470FD0C943301509184000E944D01FC
:100260000E948A02F6CFF8940E945F020E94480220
:100270000E94B6020C943A015091F0000E944D0188
:1002800046B341FFF9CF42E046BB509184000E9443
:100290004D01C8CF0E947602FFCF0E945F0268E046
:1002A00057FF01C007C030E30E942A026A9549F057
:1002B000550FF6CF31E30E942A026A9511F0550FCF
:1002C000EFCF089508EF0093B80004EA0093BC0054
:1002D0000091BC0007FFFCCF0091B900087F0830F7
:1002E00011F40C9475010E94B2020EE40093BB005D
:1002F00004E80093BC000091BC0007FFFCCF009114
:10030000B900087F003211F00C9488010E94B202FB
:1003100008950E948A0200E310E30093BB0004E802
:100320000093BC000E941E020E949E020E94920244
:100330000E949E020E9482020E949E020E949202DD
:1003400008E218E20093BB0004E80093BC000E949E
:100350001E020E949E020E94820208E218E200939E
:10036000BB0004E80093BC000E941E020E949E0293
:1003700008E818E80093BB0004E80093BC000E9462
:100380001E020E949E0208E018E00093BB0004E8F1
:100390000093BC000E941E020E949E0208E818E81A
:1003A0000093BB0004E80093BC000E941E020E9460
:1003B0009E0208E018E00093BB0004E80093BC0034
:1003C0000E941E020E949E0208E118E10093BB00F9
:1003D00004E80093BC000E941E020E949E0208E0F6
:1003E00018E00093BB0004E80093BC000E941E02CA
:1003F0000E949E0208EF18EF0093BB0004E80093F0
:10040000BC000E941E020E949E0208E018E00093B9
:10041000BB0004E80093BC000E941E020E949E02E2
:100420000E94920208E618E60093BB0004E80093DD
:10043000BC000E941E020E949E0208950091BC0012
:1004400007FFFCCF0091B900087F083209F4089536
:100450000C947A02032F007F0960102F0093BB00D9
:1004600004E80093BC000E941E020E949E02032F1B
:10047000000F000F000F000F0960102F0093BB004A
:1004800004E80093BC000E941E020E949E02089590
:1004900008EC18EC0093BB0004E80093BC000E9439
:1004A0001E020E949E0208E018E00093BB0004E8D0
:1004B0000093BC000E941E020E949E02089508E064
:1004C00018E00093BB0004E80093BC000E941E02E9
:1004D0000E949E0208E118E10093BB0004E800932B
:1004E000BC000E941E020E949E02089504E900932F
:1004F000BC0008950E94B2022F932AE32A95F1F7D7
:100500002F9108952F9324E60E947C022A95E1F70B
:100510002F9108952F9322E30E9482022A95E1F7FA
:100520002F91089525E00E9482022A95E1F708950F
:100530002CE30E948A022A95E1F708950E94820224
:1005400014601093BB0004E80093BC000E941E02DC
:100550001B7F1093BB0004E80093BC000E941E02A6
:100560000895FFCF04E90093BC00FBCFF5E0E0E97C
:100570004DE035910E942A024A95D9F70895F5E099
:10058000EEE94FE035910E942A024A95D9F7089585
:100590004249454E56454E49444F532121302A2A5F
:0E05A0002A434F434B2D5441494C2A2A2A30FE
:08060000F89471E04098189590
:00000001FF
