:020000020000FC
:1000000002E004B902E005B90E9414000E943B001E
:100010000E9458010E94F8000E944F010E940F01A7
:1000200002E005B9FFCFECCF08EF0093B80004EA77
:100030000093BC000091BC0007FFFCCF0091B90009
:10004000087F083011F40C9427000E944B010EE445
:100050000093BB0004E80093BC000091BC0007FFC4
:10006000FCCF0091B900087F003211F00C943A00E7
:100070000E944B0108950E94230100E310E30093C6
:10008000BB0004E80093BC000E94D0000E9437012E
:100090000E942B010E9437010E941B010E94370120
:1000A0000E942B0108E218E20093BB0004E80093D1
:1000B000BC000E94D0000E9437010E941B0108E290
:1000C00018E20093BB0004E80093BC000E94D0003B
:1000D0000E94370108E818E80093BB0004E8009389
:1000E000BC000E94D0000E94370108E018E0009395
:1000F000BB0004E80093BC000E94D0000E943701BE
:1001000008E818E80093BB0004E80093BC000E94D4
:10011000D0000E94370108E018E00093BB0004E81B
:100120000093BC000E94D0000E94370108E118E152
:100130000093BB0004E80093BC000E94D0000E9422
:10014000370108E018E00093BB0004E80093BC000E
:100150000E94D0000E94370108EF18EF0093BB0007
:1001600004E80093BC000E94D0000E94370108E020
:1001700018E00093BB0004E80093BC000E94D0008C
:100180000E9437010E942B0108E618E60093BB008D
:1001900004E80093BC000E94D0000E94370108953B
:1001A0000091BC0007FFFCCF0091B900087F083226
:1001B000D1F50895032F007F0960102F0093BB0035
:1001C00004E80093BC000E94D0000E943701032F76
:1001D000000F000F000F000F0960102F0093BB00ED
:1001E00004E80093BC000E94D0000E9437010895EB
:1001F00008EC18EC0093BB0004E80093BC000E94DC
:10020000D0000E94370108E018E00093BB0004E82A
:100210000093BC000E94D0000E943701089504E9B9
:100220000093BC0008950E944B012F932AE32A9566
:10023000F1F72F9108952F9324E60E9415012A9536
:10024000E1F72F9108952F9322E30E941B012A9535
:10025000E1F72F91089525E00E941B012A95E1F70F
:1002600008952CE30E9423012A95E1F708950E9446
:100270001B0114601093BB0004E80093BC000E94B3
:10028000D0001B7F1093BB0004E80093BC000E94C9
:10029000D0000895FFCF04E90093BC00FBCFF2E04B
:1002A000E2EC4DE035910E94DA004A95D9F70895C5
:1002B000F2E0E0ED4FE035910E94DA004A95D9F77F
:1002C00008954249454E56454E49444F53212130E9
:1002D0002A2A2A434F434B2D5441494C2A2A2A307B
:00000001FF
